:020000040800F2
:1000000000500020411D0008051D0008071D0008C4
:10001000091D00080B1D00080D1D00080000000050
:100020000000000000000000000000000F1D00089C
:10003000111D000800000000131D0008151D000818
:10004000891D0008891D0008891D0008891D0008F8
:10005000891D0008891D0008891D0008891D0008E8
:10006000891D0008891D0008891D0008191D000848
:10007000891D0008891D0008891D0008891D0008C8
:10008000891D0008891D0008891D0008891D0008B8
:10009000891D0008891D0008891D0008891D0008A8
:1000A000891D0008891D0008891D0008891D000898
:1000B000891D0008891D0008891D0008891D000888
:1000C000891D0008891D0008891D0008891D000878
:1000D000891D0008891D0008891D0008891D000868
:1000E000891D0008891D0008891D00080000000006
:1000F0000000000000000000000000000000000000
:0C01000000000000000000005FF808F1A3
:10010C0010B5054C237833B9044B13B10448AFF345
:10011C0000800123237010BD0C00002000000000A3
:10012C00E41D000808B5034B1BB103490348AFF3AA
:10013C00008008BD0000000010000020E41D000835
:10014C0038B50E4B054618784FF47A73B3FBF0F3C1
:10015C000B4A1068B0FBF3F000F0C8FA044658B92B
:10016C000F2D09D8024629464FF0FF3000F07CFADB
:10017C00044B20461D6038BD012038BD0000002016
:10018C000800002004000020074A08B5136803206B
:10019C0043F01003136000F055FA0020FFF7D0FF76
:1001AC0001F0C6FC002008BD00200240034A044BAD
:1001BC0011681B780B441360704700BF2C000020A3
:1001CC0000000020014B1868704700BF2C00002075
:1001DC0038B50446FFF7F6FF0546631C1EBF044BFB
:1001EC001B78E418FFF7EEFF401B8442FAD838BDA9
:1001FC00000000207047436A10B59A6A12F0500F45
:10020C001BD19A6A42F400729A621A68926802F4DC
:10021C006022B2F5602F0CD11A7B52B99A6A22F483
:10022C0080729A629A6AD2045EBF9A6A42F00102A4
:10023C009A621846FFF7DEFF10BD1B6ABDE810403E
:10024C001B6B1847704708B5406AFFF7FBFF08BDEA
:10025C007047406A08B5836A43F040038362C36AFF
:10026C0043F00403C362FFF7F3FF08BD002373B52B
:10027C00019390F82430012B74D001234D6880F841
:10028C002430062D02684FEA85030C6825D82B44D0
:10029C001F25566B053B9D4026EA050504FA03F322
:1002AC002B435363092C4FEA44038D682FD907263F
:1002BC002344D1681E3B9E4021EA060105FA03F354
:1002CC000B43D360A4F11003012B2BD90023002284
:1002DC0080F82420184602B070BD0C2D0BD82B448E
:1002EC001F25166B233B9D4026EA050504FA03F3F4
:1002FC002B431363D6E72B441F25D66A413B9D4005
:10030C0026EA050504FA03F32B43D362CAE7072652
:10031C00116923449E4021EA060105FA03F30B43BD
:10032C001361CFE7104B9A4216D193681B02CDD4C0
:10033C009368102C43F400039360C7D10B4B0C4A09
:10034C001B68B3FBF2F20A2353430193019B002B6E
:10035C00BCD0019B013BF8E7836A43F02003836226
:10036C000123B4E70223B5E7002401400800002074
:10037C0040420F00002373B50193036804469A684A
:10038C00D20702D5002002B070BD9A6842F001027B
:10039C009A60124B124A1B68B3FBF2F30193019B58
:1003AC00C3B9FFF70FFF064623689D6815F00105DA
:1003BC00E8D1FFF707FF801B0228F5D9A36A84F860
:1003CC00245043F01003A362E36A012043F00103BD
:1003DC00E362D8E7019B013BE0E700BF0800002087
:1003EC0040420F002DE9D8419046404B026804462C
:1003FC009A420F4602D03E498A4203D15B6813F4FD
:10040C00702F6ED194F82430012B6CD00123204630
:10041C0084F82430FFF7AEFF064600285DD1A06AB1
:10042C00216820F47060324B20F0010040F48070A1
:10043C009942A06204D12D4A536813F4702F3ED117
:10044C00A36A23F48013A3624B685A0505D5A36AEB
:10045C0023F4405343F48053A362A36A206A13F439
:10046C00805318BFE36A3A4618BF23F00603E362D1
:10047C00002384F824301F4B4C3183621E4BC36223
:10048C001E4B03636FF0020341F84C3C51F8443CA3
:10049C0043F4807341F8443C434600F06DF9236803
:1004AC009A6802F46022B2F5602F9A680CBF42F48D
:1004BC00A00242F480129A603046BDE8D881A36A4B
:1004CC0043F48013A36253685B0541BFA06A20F418
:1004DC00405040F48050A062BFE7002384F82430E1
:1004EC00EAE70126E8E70226E6E700BF0024014020
:1004FC000028014003020008530200085F020008B4
:10050C0038B5036804469A68D20701D4002038BD78
:10051C009A6822F001029A60FFF754FE05462368A0
:10052C009B68DB07F2D5FFF74DFE401B0228F6D97E
:10053C00A36A012043F01003A362E36A43F00103B2
:10054C00E36238BD70B50446002871D0836A23B9C4
:10055C00C36280F8243001F00DFB2046FFF7D0FF7A
:10056C00A36A13F0100FA36A64D1002862D1E16969
:10057C0023F48853626823F0020343F002030A4316
:10058C00A168A362237BB1F5807F42EA430238D095
:10059C00012914BF06464FF48076257D012D07D125
:1005AC00002B30D1A369013B46EA433545F4006684
:1005BC002368B1F5807F5D6825F4694545EA060539
:1005CC005D609E681D4D05EA060545EA02059D60C5
:1005DC0001D0012920D1216901390905DD6A25F4F1
:1005EC0070052943D9629968154B0B409A4215D175
:1005FC000023E362A36A23F0030343F00103A36225
:10060C0070BD0E46C9E7A36A43F02003A362E36AF8
:10061C0043F00103E362CBE70021DFE7A36A23F099
:10062C00120343F01003A362E36A43F00103E36295
:10063C00012070BD43F01003A362F9E7FDF7E1FF61
:10064C00FE0E1FFF074A0002D36800F4E06023F49B
:10065C00E0631B041B0C43F0BF6343F40033034300
:10066C00D360704700ED00E0174B30B5DC68C4F385
:10067C000224C4F10703251D042B28BF0423062DD7
:10068C004FF0010598BF002405FA03F303F1FF3383
:10069C0088BF033C1940A14005FA04F4013C2240F8
:1006AC00002842EA01024FEA0212A9BF00F16040A1
:1006BC00064BD2B200F56140BBBF00F00F00D2B2C6
:1006CC0080F800231A5430BD00ED00E014ED00E07A
:1006DC00002808DB0123420900F01F0003FA00F098
:1006EC00014B43F82200704700E100E00138B0F103
:1006FC00807F0AD2F021064B064A586082F82310FC
:10070C000020072298601A6070470120704700BFD4
:10071C0010E000E000ED00E010B530B314220168E9
:10072C00134B84680B44B3FBF2F39B000364114B33
:10073C000A68C363436822F47F522343C46822F0DF
:10074C0030022343046923434469234384692343CC
:10075C00C469234313430B600122002380F821203A
:10076C00836380F82030184610BD012010BD00BFF7
:10077C00F8FFFDBF00000240F0B590F82040012CBE
:10078C0035D0012490F8215080F82040A5424FF03C
:10079C0000064FF0020428D180F8214004688663DB
:1007AC002668076C26F001062660C66BBD40756096
:1007BC00636043680568102BC36A0BBFA260A1601D
:1007CC00E160E2604BB1236843F00E0323602B68B9
:1007DC00002043F001032B60F0BD236823F00403D9
:1007EC002360236843F00A03F0E780F820600220BE
:1007FC00F0BD000070B40425C66B026C346803684D
:10080C0095402542196832D04D0730D51A689606A6
:10081C005EBF1A6822F004021A603E4A934219D055
:10082C001432934218D01432934217D0143293429C
:10083C0017D01432934217D0143293420CBF4FF49A
:10084C0080034FF08063344A5360C36A002B5ED040
:10085C0070BC18470423F6E74023F4E74FF4806399
:10086C00F1E74FF48043EEE74FF48023EBE70225EA
:10087C009540254235D08D0733D51A68940606D499
:10088C001A6822F00A021A60012280F82120214AFB
:10089C00934219D01432934218D01432934217D089
:1008AC001432934217D01432934217D0143293421D
:1008BC000CBF4FF400134FF00073174A5360002322
:1008CC0080F82030836AC1E70223F6E72023F4E79F
:1008DC004FF40073F1E74FF40053EEE74FF400339D
:1008EC00EBE708259540254211D009070FD519686B
:1008FC0021F00E011960012303FA02F27260836386
:10090C0080F82130002380F82030036B9EE770BC08
:10091C00704700BF08000240000002402DE9F74F6D
:10092C0000242646664BDFF8A8E1DFF8A8C10A6868
:10093C0032FA06F502D103B0BDE8F08F4FF0010892
:10094C0008FA06F802EA080290457FD14D68122D8C
:10095C0000F0AA8000F28380022D00F0A28077D8EC
:10096C00002D00F08980012D00F099804FF00F09C7
:10097C00FF2A93BF824606F18045083DD0F800B0AF
:10098C0092BFB500D0F804B0AD0009FA05F82BEA17
:10099C00080804FA05F588BF00F1040A48EA0505C1
:1009AC00CAF80050D1F804A01AF0805F4ED0454D23
:1009BC00444FAD6926F0030845F00105BD61BD69E2
:1009CC0008F1804805F00105019508F5803806F01E
:1009DC00030B019D4FEA8B0BD8F8085009FA0BF961
:1009EC0025EA0909384DA84263D005F58065A8426F
:1009FC0061D005F58065A8425FD005F58065A842F9
:100A0C000CBF0325042505FA0BF545EA0905C8F8C2
:100A1C0008501D681AF4803F14BF154395431D60A0
:100A2C005D681AF4003F14BF154395435D609D68E3
:100A3C001AF4801F14BF154395439D60DD681AF4AA
:100A4C00001F14BF2A4325EA0202DA6001366EE762
:100A5C00032D22D0112D89D1CC68043486E71B4F8D
:100A6C00BD4209D012D8DFF870904D4504D009F57D
:100A7C0080394D457FF47AAF8C68C4B1012C0CBF22
:100A8C00C0F81080C0F8148008246FE77545F3D0C7
:100A9C006545F1D0DFF84490EBE7002466E7CC68BD
:100AAC0064E7CC68083461E7CC680C345EE7042456
:100ABC005CE70025A7E70125A5E70225A3E700BF12
:100ACC000004014000100240000801400000211009
:100ADC000000311000003210000011100000221034
:100AEC008368194214BF0120002070470AB10161CC
:100AFC0070470904FBE700002DE9F341054608B9EE
:100B0C0001203CE00368DB0710D42B689F075DD401
:100B1C002B68190700F194802B685A0700F1BE80EE
:100B2C00E869002840F02C81002028E08F4C636895
:100B3C0003F00C03042B07D0636803F00C03082BA1
:100B4C0009D16368DE0306D523689C03DDD56B6889
:100B5C00002BDAD1D4E76B68B3F5803F12D1236850
:100B6C0043F480332360FFF72DFB0646236898037C
:100B7C00CBD4FFF727FB801B6428F7D9032002B0E6
:100B8C00BDE8F0819BB9236823F48033236023688C
:100B9C0023F480232360FFF715FB06462368990393
:100BAC00B3D5FFF70FFB801B6428F7D9E6E7B3F545
:100BBC00A02F236803D143F480232360CFE723F4D1
:100BCC0080332360236823F48023CBE7674C63686E
:100BDC0013F00C0F07D0636803F00C03082B10D133
:100BEC006368DA030DD423689B0702D52B69012BAC
:100BFC0086D123686A6923F0F80343EAC2032360B1
:100C0C0086E72A695A4B6AB101221A60FFF7DAFAB1
:100C1C00064623689F07ECD4FFF7D4FA801B022802
:100C2C00F7D9ABE71A60FFF7CDFA064623689807A9
:100C3C007FF56EAFFFF7C6FA801B0228F6D99DE749
:100C4C00AA694A4C4B4BDAB101221A60FFF7BAFA87
:100C5C000646636A9B070DD54FF4FA52464B1B6848
:100C6C00B3FBF2F3019300BF019B5A1E0192002BC0
:100C7C00F9D151E7FFF7A6FA801B0228E9D97DE7E5
:100C8C001A60FFF79FFA0646636A9F077FF544AF29
:100C9C00FFF798FA801B0228F6D96FE7334CE3690B
:100CAC00D80024D40127E36943F08053E361E3695E
:100CBC0003F080530093009B304E3368D90518D550
:100CCC00EB68012B26D1236A43F001032362FFF763
:100CDC0079FA41F288368046236A9B073FD5002F6C
:100CEC003FF41EAFE36923F08053E36118E700275C
:100CFC00E2E7336843F480733360FFF763FA8046AE
:100D0C003368DA05DCD4FFF75DFAA0EB0800642841
:100D1C00F6D933E7ABB9236A41F2883823F00103E3
:100D2C002362236A23F004032362FFF74BFA06467F
:100D3C00236A9807D3D5FFF745FA801B4045F7D9AE
:100D4C001CE7052B236A03D143F004032362BAE7A3
:100D5C0023F001032362236A23F00403B6E7FFF7B1
:100D6C0031FAA0EB0800B042B6D907E700100240F8
:100D7C000000424280044242080000200070004003
:100D8C002A4B5A681C4602F00C02082A3DD000235C
:100D9C00274E022833602BD1FFF714FA074623683D
:100DAC0099011FD42B6AB3F5803F05D16268A968FD
:100DBC0022F400320A436260696A62680B4322F4CF
:100DCC0074121343636001233360FFF7FBF905468C
:100DDC0023689A013FF5A8AEFFF7F4F9401B0228EF
:100DEC00F6D9CBE6FFF7EEF9C01B0228D7D9C5E63A
:100DFC00FFF7E8F9054623689B017FF595AEFFF7F1
:100E0C00E1F9401B0228F6D9B8E601283FF4B7AE49
:100E1C0058682B6A00F480329A427FF471AE6B6A88
:100E2C0000F47010C01A18BF0120A8E60010024090
:100E3C006000424230B5194B87B002AC03F110058B
:100E4C00224618685968083303C2AB421446F7D1DE
:100E5C0001238DF80430022311498DF805304B68BD
:100E6C0003F00C02082A17D1C3F3834206A80244EC
:100E7C00DB0312F8102C0CD54B680A48C3F3404323
:100E8C00504306AA134413F8143CB0FBF3F007B01C
:100E9C0030BD05485043FAE70248F8E7FC1D00084E
:100EAC000010024000127A0000093D002DE9F041CB
:100EBC000D46044610B90120BDE8F081454A13687F
:100ECC0003F007038B4229D321688E0731D4CA075C
:100EDC0044D4404A136803F007039D4267D3226849
:100EEC003D4D12F0040F6ED1130706D56B682269C5
:100EFC0023F4605343EAC2036B60FFF79BFF6B68FC
:100F0C00364AC3F30313D35CD840354B1860354BCA
:100F1C001868FFF715F90020BDE8F081136823F07D
:100F2C0007030B431360136803F007039942C2D104
:100F3C00CAE7294B11F0040F1EBF5A6842F4E06255
:100F4C005A60080742BF5A6842F460525A605A68A5
:100F5C00A06822F0F00202435A60B8E762681E4EA5
:100F6C00012A33681BD113F4003FA4D0736841F2FB
:100F7C00883823F0030313437360FFF723F9074604
:100F8C007368626803F00C03B3EB820FA1D0FFF718
:100F9C0019F9C01B4045F3D90320BDE8F081022AA2
:100FAC0002D113F0007FE0E713F0020FDDE71368C6
:100FBC0023F007032B431360136803F007039D42D0
:100FCC007FF479AF8BE76B68E16823F4E0630B4344
:100FDC006B6089E700200240001002400C1E0008E4
:100FEC000800002004000020044B054A5B68C3F392
:100FFC000223D35C034A1068D840704700100240AB
:10100C001C1E000808000020044B054A5B68C3F353
:10101C00C223D35C034A1068D840704700100240CA
:10102C001C1E00080800002003682DE9F341D907B5
:10103C00054620D5354CE369DA0032D40127E36943
:10104C0043F08053E361E36903F080530193019B08
:10105C002F4E3368DB0526D5236A13F4407336D143
:10106C00236A6A6823F44073134323621FB1E36954
:10107C0023F08053E3612868830706D5234AA968C7
:10108C00536823F440430B43536010F010001BD003
:10109C001E4AE9685368002023F480030B43536015
:1010AC0012E00027D4E7336843F480733360FFF712
:1010BC0089F880463368D805CED4FFF783F8A0EBC7
:1010CC0008006428F6D9032002B0BDE8F0816A68F4
:1010DC0002F440729342C3D001200E4A236A10607E
:1010EC00002023F4407110602162D907B8D5FFF7B6
:1010FC0069F841F288380646236A9A07B0D4FFF79C
:10110C0061F8801B4045F7D9DDE700BF00100240B5
:10111C000070004040044242036A70B523F00103A2
:10112C000362036A446882690D6822F073022A43E1
:10113C008D6823F002032B430A4DA8420BD1CD68D6
:10114C0023F008032B438E694D6924F44074354316
:10115C0023F004032C43446082614A6842630362B7
:10116C0070BD00BF002C0140036A70B523F480737E
:10117C000362036A4468C2690D6822F073022A4351
:10118C008D6823F4007343EA05230B4DA8420DD15F
:10119C00CD6823F4006343EA05238E694D6924F47A
:1011AC004054354323F4806344EA05144460C2611F
:1011BC004A68C263036270BD002C0140036A30B5FB
:1011CC0023F480530362036A4468C2690D6822F4F5
:1011DC00E64242EA05228D6823F4005343EA0533C4
:1011EC00064DA84202BF4D6924F4804444EA85149C
:1011FC004460C2614A680264036230BD002C014045
:10120C001A4A036890420AD0B0F1804F07D0A2F579
:10121C009432904203D002F58062904215D14A6814
:10122C0023F070031343114A90420AD0B0F1804F5F
:10123C0007D0A2F59432904203D002F5806290421E
:10124C0003D1CA6823F4407313434A6923F0800323
:10125C00134303608B68C3620B688362034B984231
:10126C0004BF0B690363012343617047002C0140E9
:10127C0010B5044630B390F83D3003F0FF021BB9B3
:10128C0080F83C2000F0C2FC0223206884F83D303A
:10129C00211DFFF7B5FF0123002084F8463084F8A8
:1012AC003E3084F83F3084F8403084F8413084F884
:1012BC00423084F8433084F8443084F8453084F864
:1012CC003D3010BD012010BD036A70B523F0100332
:1012DC000362036A446882690D6822F4E64242EABA
:1012EC0005228D6823F0200343EA05130B4DA84219
:1012FC000DD1CD6823F0800343EA05138E694D6947
:10130C0024F44064354323F0400344EA85044460EC
:10131C0082614A688263036270BD00BF002C014089
:10132C0038B590F83C300446012B54D0012380F89A
:10133C003C300C2A18D8DFE802F0071717171B17D8
:10134C0017172C1717173D000068FFF7E5FE2368E9
:10135C0009699A6942F008029A619A6922F00402BA
:10136C009A619A690A439A61002084F83C0038BD5E
:10137C000068FFF7A9FF236809699A6942F40062C3
:10138C009A619A6922F480629A619A6942EA01220E
:10139C00E9E70068FFF7E8FE23680969DA6942F0BB
:1013AC000802DA61DA6922F00402DA61DA690A43C6
:1013BC00DA61D9E70068FFF701FF23680969DA6988
:1013CC0042F40062DA61DA6922F48062DA61DA6985
:1013DC0042EA0122ECE7022038BD10B50124036A71
:1013EC0001F01F018C4023EA04030362036A8A4064
:1013FC001A43026210BD000010B5044629B990F8DA
:10140C003E30012B1DD0012010BD042907D190F8CE
:10141C003F30012BF7D1022380F83F3014E008292C
:10142C0007D190F84030012BEDD1022380F84030E9
:10143C000AE090F84130012BE5D1022380F84130CD
:10144C0002E0022380F83E3001222068FFF7C5FF3E
:10145C0023680E4A93420AD15A6C42F400425A64F1
:10146C009A6802F00702062A0BD1002010BDB3F1D6
:10147C00804FF5D0064A9342F2D002F58062934237
:10148C00EED01A6842F001021A60EEE7002C01401F
:10149C000004004090F83C3030B5012B4FF00203B3
:1014AC0025D0012280F83D3003680D685C6880F817
:1014BC003C2024F070042C439A685C600D4CA342D1
:1014CC000AD0B3F1804F07D0A4F59434A34203D0D3
:1014DC0004F58064A34204D1496822F080020A43D7
:1014EC009A60012380F83D30002380F83C30184688
:1014FC0030BD00BF002C014038B504460368C168FC
:10150C001A6922F440520A431A6182680069D96848
:10151C000243606921F4B05121F00C0102430A43EB
:10152C00DA605A69A16922F440720A435A610E4A80
:10153C00934215D1FFF768FD192358436368642261
:10154C009B00B0FBF3F0B0FBF2F102FB11031B01AB
:10155C003233B3FBF2F3256803EB0113AB6038BDF8
:10156C00FFF742FDE8E700BF0038014010B5044624
:10157C0040B390F8393003F0FF021BB980F83820E3
:10158C0000F07EFB2423226884F83930D36820468F
:10159C0023F40053D360FFF7AFFF236800201A69D0
:1015AC0022F490421A615A6922F02A025A61DA68CE
:1015BC0042F40052DA602023E06384F8393084F876
:1015CC003A3010BD012010BD044B18880A2300EBE3
:1015DC008000400080B2B0FBF3F07047E8000020C0
:1015EC0008B5054903220548FEF7FCFEBDE8084096
:1015FC0008210348FFF700BFE8000020B8000020D6
:10160C007000002010B5082113480122FFF76EFA74
:10161C004FF480511148FFF763FA30B9104B187032
:10162C000F4B1A780F4B1A7010BD4FF480510B48AA
:10163C00FFF756FA0028F3D0084C4FF4805120469F
:10164C00FFF74EFA0028F8D13220FEF7C1FD012237
:10165C00034B1A70E4E700BF00080140000C014086
:10166C00290000202800002013B501224021184831
:10167C00FFF73CFA012280211548FFF737FAFFF7F4
:10168C00A3FFC7230093002340F6FF72194600F016
:10169C0044FB104B4FF480511B68D8630E48FFF786
:1016AC001FFA98B10C4C4FF480512046FFF718FAF2
:1016BC000028F8D13220FEF78BFD0422074B1A705C
:1016CC00064B1A78064B1A7002B010BD0322F5E7D0
:1016DC000008014070000020000C0140290000208F
:1016EC002800002008B5012208210248FFF7FEF966
:1016FC00FEE700BF0008014008B5402101220E485A
:10170C00FFF7F4F93220FEF763FD4FF400710B483C
:10171C00FFF7E6F908B9FFF7E5FF10210648FFF7D8
:10172C00DFF9074B28B102221A701A78054B1A7090
:10173C0008BD0122F8E700BF000C01400008014081
:10174C002900002028000020F8B5002240213C4848
:10175C00FFF7CCF9012280213948FFF7C7F9322075
:10176C00FEF736FD4FF400713648FFF7B9F9012842
:10177C0001D1FFF7B7FF4FF400413248FFF7B0F942
:10178C000028F6D04FF480512D48FFF7A9F970B11D
:10179C002B4C4FF480512046FFF7A2F90028F8D1CA
:1017AC003220FEF715FD0422274B1A7021E04FF46E
:1017BC0000512348FFF794F920B340F6AC52234C68
:1017CC00A18891421ED9FEF7FDFC0546FEF7FAFCF6
:1017DC0040F6B7361A4F401BB04215D84FF40051A3
:1017EC003846FFF77DF920B140F6AC53A2889A42F7
:1017FC0004D8154B1A78164B1A70F8BDFEF7E2FC9C
:10180C00401BE9E70222CFE7012204210D48FFF734
:10181C006DF940F6B830FEF7DBFC002204210948D4
:10182C00FFF764F9064C4FF400512046FFF758F9C6
:10183C000028F8D13220FEF7CBFC0322B4E700BF1E
:10184C00000C01400008014029000020E8000020A5
:10185C002800002008B5002208211448FFF746F99B
:10186C00002240211148FFF741F9002280210F4846
:10187C00FFF73CF9002280210D48FFF737F94FF4B0
:10188C0000410A48FFF72CF9012801D1FFF72AFF84
:10189C0008210748FFF724F901280CBF0022042275
:1018AC00044B1A701A78044B1A7008BD00080140DA
:1018BC00000C01402900002028000020094B1B7857
:1018CC00042B0ED8DFE803F0030507090B00FFF724
:1018DC0099BEFFF711BFFFF737BFFFF7C5BEFFF784
:1018EC00B9BF704728000020282210B594B00DEB2A
:1018FC000200002100F068FA142200210DEB020016
:10190C0000F062FA0021102201A800F05DFA4FF4F9
:10191C008033022401220B9312934FF4E0130AA894
:10192C000A920E9213931194FFF7E6F80F234FF4DB
:10193C00806205930023214605A80793089209931A
:10194C000694FFF7B3FA4FF4404301A801940393B4
:10195C00FFF76AFB14B010BD80B56B4D8EB0FEF76F
:10196C0013FCFFF7C1FF1022002107A800F02CFA8E
:10197C00AB69002243F01003AB61AB69DC2103F0CF
:10198C0010030193019BAB69604843F02003AB61EA
:10199C00AB69002403F020030293029BAB69012680
:1019AC0043F00403AB61AB694FF0020803F004038E
:1019BC000393039BAB69032743F00803AB61AB694B
:1019CC0003F008030493049BFFF790F80022C02156
:1019DC004F48FFF78BF8DC2307A94C480793089670
:1019EC000994CDF82880FEF799FF4FF2380307A928
:1019FC004748079308940994FEF790FF4FF4074368
:101A0C0007A94248079308940994FEF787FFC0235F
:101A1C0007A93F48079308960994CDF82880FEF74C
:101A2C007DFF6B69224633436B616B692146334002
:101A3C0000930B20009BFEF717FE0B20FEF748FED1
:101A4C00344D354B28462B604FF48073AB604FF40C
:101A5C0060232E73EB612C756C602F6107940894D6
:101A6C000994FEF76FFD062307A9284609930794EE
:101A7C000896FEF7FBFB07A928460796CDF82080B1
:101A8C00FEF7F4FB052307A9284607930897FEF7F2
:101A9C00EDFB1C2221460DEB0200204D0594069413
:101AAC0000F092F91E4B284685E88800C723AC60ED
:101ABC00EB602C61AC61FFF7DBFB05A928460594B4
:101ACC000694FFF7E7FC6023082207A92846079332
:101ADC00089409940B94FFF723FC284600F0AAF80D
:101AEC004FF416530F48104A846080E80C000C2306
:101AFC00C460436104618461C461FFF737FDFFF783
:101B0C006FFDFFF7DBFEFCE7001002400008014010
:101B1C00000C0140B800002000240140700000209F
:101B2C0000040040300000200048004070470000D6
:101B3C000E4B82B09A6942F001029A619A6902F0E6
:101B4C0001020092009ADA6942F08052DA61DB6994
:101B5C00074A03F080530193019B536823F0E06321
:101B6C0043F08063536002B0704700BF0010024026
:101B7C000000014030B5054687B01022002102A8B4
:101B8C0000F022F92A681D4B9A4234D103F56C43BC
:101B9C009A691B4842F400729A619A6902A902F48C
:101BAC0000720092009A9A69164C42F004029A61F3
:101BBC009B6903F004030193019B232302930323EA
:101BCC000393FEF7ABFE8022E2604FF48072226139
:101BDC004FF480620C4B626123602022002320466C
:101BEC006360A360A261E361FEF796FD08B1FFF7A5
:101BFC009DFF2C62656207B030BD00BF0024014020
:101C0C0000080140F0000020080002400268084B68
:101C1C0082B09A420AD103F50333DA6942F0020228
:101C2C00DA61DB6903F002030193019B02B0704798
:101C3C000004004010B5044686B01022002102A812
:101C4C0000F0C2F822680C4B9A4213D103F503330F
:101C5C009A6902A942F008029A619B69074803F04D
:101C6C0008030193019B0123029302230393059321
:101C7C00FEF754FE06B010BD00040040000C0140FD
:101C8C0010B5044686B01022002102A800F09CF882
:101C9C002268174B9A4228D103F5E433DA6902A97A
:101CAC0042F48022DA61DA69124802F4802200924E
:101CBC00009A9A6942F008029A619B6903F0080342
:101CCC000193019B4FF4806302930223039303233C
:101CDC000593FEF723FE4FF400630293002302A941
:101CEC00044803930493FEF719FE06B010BD00BF21
:101CFC0000480040000C01407047FEE7FEE7FEE79D
:101D0C00FEE7704770477047FEF750BA0148FEF780
:101D1C0071BD00BFF0000020704710B5441ABDF82B
:101D2C000800521AC01A604390FBF2F0184480B2BB
:101D3C0010BD0000002103E00B4B5B5843500431F5
:101D4C000A480B4B42189A42F6D30A4A02E0002387
:101D5C0042F8043B084B9A42F9D3FFF7DDFF00F041
:101D6C000FF8FFF7F9FD70472C1E0008000000204B
:101D7C000C0000200C00002034010020FEE70000C5
:101D8C0070B500250C4E0D4CA41BA410A54209D116
:101D9C0000F022F800250A4E0A4CA41BA410A54200
:101DAC0005D170BD56F8253098470135EEE756F849
:101DBC00253098470135F2E7241E0008241E000840
:101DCC00241E0008281E000803460244934200D13A
:101DDC00704703F8011BF9E7F8B500BFF8BC08BC65
:101DEC009E467047F8B500BFF8BC08BC9E467047CD
:101DFC0002030405060708090A0B0C0D0E0F101040
:101E0C00000000000000000001020304060708099E
:081E1C000000000001020304B4
:041E24003101000880
:041E28000D010008A0
:0C1E2C0001000000100000000024F40081
:0400000508001D4191
:00000001FF
